S0150000756172745F61746D65676131362E737265631E
S11300000C942A000C9447000C9447000C9447006D
S11300100C9447000C9447000C9447000C94470040
S11300200C94F9000C9447000C9447000C9447007E
S11300300C9447000C9447000C9447000C94470020
S11300400C9447000C9447000C9447000C94470010
S11300500C94470011241FBECFE5D4E0DEBFCDBF12
S113006010E0A0E6B0E0E0ECF2E002C005900D92F2
S1130070AC36B107D9F720E0ACE6B0E001C01D9280
S1130080AD36B207E1F70E940A010C945E010C94AC
S113009000002AB128612AB920B5266820BDDC01F8
S11300A0CB01880F991FAA1FBB1F880F991FAA1F76
S11300B0BB1F9C01AD01220F331F441F551F220F8C
S11300C0331F441F551F60E072E18AE790E00E94ED
S11300D03C018FEF820F89B9DA01C9010197A109A7
S11300E0B109892F9A2FAB2FBB2780BD08955F9B41
S11300F0FECF8CB108955D9BFECF8CB9089584E04A
S113010089BF8EB582608EBD1DBC1CBC78940E94D4
S113011077000E947B0080916C008C33C0F31EBC7E
S113012010926C0008958BBB85B38E7F85BB85B31D
S11301308D7F85BB85B3846085BB82E08A95F1F7AA
S113014000C085B38B7F85BB8FE697E10197F1F7FC
S113015000C0000008958BBB85B3816085BB85B367
S11301608D7F85BB85B3846085BB82E08A95F1F77A
S113017000C085B38B7F85BB8FEC97E00197F1F7C7
S113018000C0000008958FEF84BB8ABB8FE39CE915
S11301900197F1F700C0000088E30E9493008CE00F
S11301A00E94930086E00E94930081E00E949300E5
S11301B080E80E94930008950F931F93CF93DF93D9
S11301C08C01C0E0D0E003C00E94AB002196F8018E
S11301D0EC0FFD1F80818111F7CFDF91CF911F912B
S11301E00F91089581E00E94930080E80E9493009B
S11301F008951F920F920FB60F9211248F9380913E
S11302006C008F5F80936C008F910F900FBE0F90E6
S11302101F90189583E087BB88BB60E875E280E097
S113022090E00E9449000E94C300D0E001C0DC2F8E
S1130230D13311F40E947F000E947700C82FD81791
S113024029F00E94F200C03359F403C00E947B00DD
S1130250EECF81E088BB80E690E00E94DC0008C01D
S1130260C13331F482E088BB86E690E00E94DC0072
S11302708C2F0E947B00DBCFA1E21A2EAA1BBB1B92
S1130280FD010DC0AA1FBB1FEE1FFF1FA217B3075E
S1130290E407F50720F0A21BB30BE40BF50B661F74
S11302A0771F881F991F1A9469F760957095809538
S11302B090959B01AC01BD01CF010895F894FFCF47
S10F02C0434C4F5345004F50454E000086
S9030000FC
